:020000040800F2
:100000000030002059350008A9350008A93500083E
:1000100000000000000000000000000000000000E0
:10002000000000000000000000000000A9350008EA
:100030000000000000000000A9350008BB210008F6
:10004000A935000800000000A9350008A9350008FE
:10005000A93500087D2200088D2200089D22000895
:1000600000000000A9350008A9350008A9350008DE
:10007000A9350008651F00087D1F0008000000006A
:10008000851F000800000000000000009D1F000800
:1000900000000000B51F0008CD1F0008A9350008AA
:1000A00000000000A935000800000000352D000800
:1000B0004D2D0008000000000000000000000000BE
:1000C0000023C25C0133002AFBD1581E7047000098
:1000D00002B4714649084900095C49008E4402BCDB
:1000E0007047C046002243088B4274D303098B42F9
:1000F0005FD3030A8B4244D3030B8B4228D3030CF8
:100100008B420DD3FF22090212BA030C8B4202D399
:100110001212090265D0030B8B4219D300E0090AC1
:10012000C30B8B4201D3CB03C01A5241830B8B42CA
:1001300001D38B03C01A5241430B8B4201D34B03B3
:10014000C01A5241030B8B4201D30B03C01A524118
:10015000C30A8B4201D3CB02C01A5241830A8B429D
:1001600001D38B02C01A5241430A8B4201D34B0286
:10017000C01A5241030A8B4201D30B02C01A5241EA
:10018000CDD2C3098B4201D3CB01C01A524183099E
:100190008B4201D38B01C01A524143098B4201D3D8
:1001A0004B01C01A524103098B4201D30B01C01A03
:1001B0005241C3088B4201D3CB00C01A524183087D
:1001C0008B4201D38B00C01A524143088B4201D3AA
:1001D0004B00C01A5241411A00D20146524110460A
:1001E0007047FFE701B5002000F006F802BDC046E9
:1001F0000029F7D076E770477047C046844608006C
:100200006146FFE71FB504F0FBF9002801D4002187
:10021000C8421FBD10B504F081F94042013010BD45
:1002200010B504F0EDF9002801DB002010BD01201D
:1002300010BDC04610B504F0E3F9002801DD002030
:1002400010BD012010BDC04610B504F08FF9002884
:1002500001DC002010BD012010BDC04610B504F027
:1002600085F9002801DA002010BD012010BDC0462C
:100270001C2101231B04984201D3000C10391B0AD6
:10028000984201D3000A08391B09984201D300099A
:10029000043902A2105C40187047C04604030202F1
:1002A00001010101000000000000000010B5064C33
:1002B0002378002B07D1054B002B02D0044800E027
:1002C00000BF0123237010BD980000200000000033
:1002D00020550008044B10B5002B03D003490448F7
:1002E00000E000BF10BDC046000000009C000020E0
:1002F0002055000837B5FA210F4D8900AB680093EF
:100300006C680134A000FFF7EDFE0022009B019312
:10031000AB6800930199009B994209D20199009B17
:10032000E31A5B18D218009B01939042F0D837BDB6
:10033000019B00995B1AF5E710E000E010B5002181
:1003400003F034F910BD10B50400012103F02EF9BB
:100350000021200003F086F910BD10B50F20FFF733
:10036000EDFF0E20FFF7EAFF10BD10B50E20FFF7DE
:10037000E5FF0F20FFF7E2FFFFF7BCFF0E20FFF7BE
:10038000E2FFFFF7B7FF0F20FFF7DDFF10BD10B54D
:100390000E20FFF7D8FFFFF7ADFF0F20FFF7CEFFCE
:1003A000FFF7A8FF0E20FFF7C9FFFFF7A3FF10BD5F
:1003B00070B5040008250F2663B20E20002B23DA47
:1003C000FFF7BCFFFFF796FF3000FFF7B7FF6400B1
:1003D000FFF790FF013D3000FFF7B5FFE4B2002DBD
:1003E000EAD10E20FFF7AAFF0F20FFF7A7FFFFF7C4
:1003F00081FF0E2003F072F9040063425C410F207C
:10040000FFF7A1FFE0B270BDFFF79DFFDAE7F7B598
:1004100001900E20FFF792FF082500240F260127E8
:100420003000FFF78BFF6400FFF764FF0E20E4B29B
:1004300003F054F9002800D03C433000013DFFF7A1
:1004400082FFFFF757FF002DEAD1019B0E20002B02
:100450000ED0FFF778FF0F20FFF770FFFFF74AFF7E
:100460000F20FFF770FF0E20FFF768FF2000FEBD92
:10047000FFF764FFEFE70000E12110B5114C062201
:100480002000490202F0C6FEFFF767FF0E49200078
:1004900002F04CFFFFF769FFD020FFF789FF00282B
:1004A0000CD06B20FFF784FF0020FFF781FFFFF7E0
:1004B0006EFF0649200002F039FF10BDFFF767FF0D
:1004C0000349F7E714020020385500085A55000880
:1004D0007E550008F8B5FFF748FFD020FFF768FF0A
:1004E0003B20FFF765FFFFF752FFFFF73EFFD120EC
:1004F000FFF75EFF0120FFF78AFF06000120FFF7EC
:1005000086FF360206430120FFF781FF0400012029
:10051000FFF77DFF240204430120FFF778FF050069
:100520000020FFF774FF36B22D020543FFF72FFFBF
:10053000300004F0F5FE0022304B04F025FC04F0FE
:1005400065FF2DB2061C280004F0EAFE00222B4BAA
:1005500004F01AFC04F05AFF311C051C301C04F096
:1005600097F8291C071C281C04F092F8011C381C61
:1005700003F022FD03F0CCFA24B2071C200004F0A3
:10058000CFFE00221D4B04F0FFFB04F03FFF391C9F
:1005900003F0BAFA04F0F2FE194A1A4B04F0F4FB25
:1005A00004F034FF80231B06071C291CF01803F0FD
:1005B000ABFA04F0E3FE134B114A04F0E5FB04F040
:1005C00025FF114C051C1149200002F093FE022268
:1005D000391C200002F066FF20000D4902F08AFE5F
:1005E00020000C4902F086FE291C0222200002F0A5
:1005F0005EFF322003F0B4F8F8BDC0460000103FA3
:1006000012143FC6DCA54C4014020020B05500086F
:10061000B7550008B95500087047000070B5104B79
:1006200005001978002901D1012070BDFA20800051
:10063000FFF758FD0B4C01002068FFF753FD00F059
:1006400081F8041EF0D1032DEED80200012029000C
:10065000404200F031F8044B20001D60E5E7C04641
:100660000000002040000020040000208023084AF1
:100670005B00116810B50B4303201360FFF7CEFF3A
:10068000041E03D1FFF7C8FF200010BD0124FBE7C3
:1006900000200240034A044B11681B785B1813606A
:1006A0007047C046B400002000000020014B1868CD
:1006B0007047C046B400002010B5FF2403220B0091
:1006C00021000240D20091409B012340C943934046
:1006D00000280ADBC0240B4A800880008018A40090
:1006E00002590A401343035110BD0F22104008382D
:1006F000054A800880008018C26911401943C16111
:10070000F2E7C04600E100E000ED00E0002805DB74
:100710001F2318401E3B8340014A13607047C046A8
:1007200000E100E0002809DB1F2318401E3B834046
:10073000034AD367BFF34F8FBFF36F8F7047C04635
:1007400004E100E08022431E5204012093420DD2B6
:10075000C021074A07485360036A09061B021B0AA7
:100760000B43036200200723906013607047C0466C
:1007700010E000E000ED00E0002807DB1F23C022AE
:1007800018401E3B8340024952008B507047C046C0
:1007900000E100E0704710B5FFF7FCFF10BD7047A7
:1007A00010B5041E01D1012010BD437FDAB2002B29
:1007B00002D10277FFF7F3FF022363772379002B3F
:1007C0001CD118212368124A5A619A688A439A6098
:1007D00062792368002A19D1013A60211A619A6866
:1007E00000208A4361690A4380219A609A688A439B
:1007F000A1690A439A6001236377D5E72000E26884
:10080000A16800F007F80028E2D0CCE72269E4E70D
:10081000B71DC10430B501250400280029420FD0BE
:100820001F23013B22D30800D8402842F9D0102AC8
:1008300015D0102A05D8002A08D00120082A12D085
:1008400030BD0120182AFBD1062BF9D82068416160
:10085000182183688B43134383600020F0E7012055
:10086000072BF3D9ECE70F2BEAD8EFE70120102A8A
:10087000DFD1E5E7F0B5002808D0841DE37F411DF6
:10088000022B05D00423C3630023CB770120F0BDE6
:100890000E250268466C1368AB4313603368104D35
:1008A0002B403360012316689E431660026C1B3395
:1008B0001A401B3B93400B4E77683B437360C26CFE
:1008C000836C5A60036D002B05D01A682A401A60A9
:1008D000436D826D5A6001230020E377C877D6E725
:1008E000FFFEFFFF00000240F8B50123411DCB775A
:1008F000841DE27F022A03D00422C2631800F8BDDF
:100900000E2602681568B54315601568466C9D4350
:1009100015603268114D2A403260026C104E15008D
:100920001C221540AB4077683B437360C26C836CFC
:100930005A60036D002B06D01A68084D2A401A60D1
:10094000436D826D5A600123E3770023CB77836B7D
:10095000002B00D098470020D1E7C046FFFEFFFFE4
:100960000000024070B5084D0400EB68184202D048
:10097000E86001F07BFC2B69234203D020002C614E
:1009800001F078FC70BDC0460018024038220F4BC1
:100990009968114205D11B680D489B045B0FD84034
:1009A00070479968114008290BD099681140202997
:1009B00009D09B6800201340182BF1D1FA20C00108
:1009C000EEE70348ECE780200002E9E70010024070
:1009D000006CDC02064B07499B68074A5B045B0F0F
:1009E0009B005B581F2110680B40D8407047C046E1
:1009F000001002402C56000840000020704770474D
:100A00000222036870B5DD681E69040016420DD02D
:100A100015420BD0053A1A61043202779B699B0795
:100A200000D17CE001F03FFB0023237704231E422A
:100A300012D01D4210D00522236852421A6107329B
:100A400022779A69C0239B0020001A4200D16CE0F3
:100A500001F029FB0023237708231E420FD01D42FB
:100A60000DD00922236852421A610D322277DB69C8
:100A700020009B075FD001F016FB00232377102393
:100A80001E4211D01D420FD01122236852421A611A
:100A900019322277DA69C0239B0020001A4250D015
:100AA00001F001FB0023237701231E4208D01D42E1
:100AB00006D002222368524220001A6101F0C8FACF
:100AC00080231E4208D01D4206D081222368524254
:100AD00020001A6100F0A7F8F30507D52B0605D50D
:100AE00023681B4A20001A6100F09EF840231E4232
:100AF00008D01D4206D041222368524220001A61CC
:100B0000FFF77DFF20231E4208D01D4206D0212280
:100B10002368524220001A6100F084F870BD01F091
:100B2000BEFA2000FFF76AFF7EE701F0B8FA200066
:100B3000FFF764FF8EE701F0B2FA2000FFF75EFFD7
:100B40009BE701F0ACFA2000FFF758FFAAE7C04688
:100B5000FFFEFFFF10B5184C0368A0420AD0174AE9
:100B6000904207D0164A904209D1164A1A40CB68E3
:100B700013430AE0702293434A681343F5E7124A8D
:100B80009042F2D0114A9042EFD0802293434A69BA
:100B9000134303608B68C3620B688362A04205D075
:100BA000094B984202D0094B984201D10B6903636B
:100BB0000123436110BDC046002C014000040040E9
:100BC00000200040FFFCFFFF0044014000480140BE
:100BD00070B504000120002C23D025003D352B7872
:100BE000DAB2002B05D123003C3320001A7001F04B
:100BF000BDFE02232B702068211DFFF7ABFF2200F2
:100C0000012300204832137047340A3A137053709E
:100C10009370D370137153719371D37113722370E6
:100C20002B7070BD704770477047000030B5EFF310
:100C30001084012282F310880168134D0B682B4049
:100C40000B6084F31088EFF3108182F31088026840
:100C50000E4C93682340936081F31088C36E012B80
:100C60000AD1EFF3108183F310881024026813680F
:100C7000A343136081F31088030020228C331A6091
:100C80000023C366436730BDDFFEFFFFFEFFFFEFBB
:100C900030B5EFF31084012282F3108880250168BB
:100CA0000B68AB430B6084F31088EFF3108182F381
:100CB00010884023026810680343136081F3108892
:100CC00030BD030088331B6810B5212B06D102000C
:100CD00056321388002B02D1FFF7DAFF10BD036DE7
:100CE00001681C7801338C6203651388013B9BB259
:100CF0001380F3E7030088331B6810B5212B06D15E
:100D0000010056310B88002B02D1FFF7C1FF10BD47
:100D1000026D046813880232DB05DB0DA3620265F5
:100D20000B88013B9BB20B80F1E700000300883386
:100D30001B6870B5212B21D10300010080246A3388
:100D40001B885631002B19D00A88002A17D1EFF3DF
:100D50001084013282F310880168114D8B682B409A
:100D60008B6084F31088EFF3108182F310884023A6
:100D7000026810680343136081F3108870BD056832
:100D8000EA69224208D0026D16780132AE6202652D
:100D90000A88013A92B20A80013B9BB2D2E7C04670
:100DA000FFFF7FFF030088331B6870B5212B21D123
:100DB0000300010080246A331B885631002B19D0B0
:100DC0000A88002A17D1EFF31084013282F31088C9
:100DD0000168124D8B682B408B6084F31088EFF311
:100DE000108182F310884023026810680343136067
:100DF00081F3108870BD0668F26922420AD0056D41
:100E00002A880235D205D20DB26205650A88013AF8
:100E100092B20A80013B9BB2D0E7C046FFFF7FFF42
:100E20007047000030B5050088352C6803000220AB
:100E3000202C38D10138002935D0002A33D0802029
:100E40009C684001844205D11869002802D1013014
:100E5000014228D11965190054310A804A801A00CC
:100E6000002190321160212280212A608022586E58
:100E700092054901904217D1154A8C4204D1196953
:100E8000144A002900D0124A9A67EFF31081012218
:100E900082F310881A68802390681B0403439360D0
:100EA00081F31088002030BD0B4A8C4204D11969AF
:100EB0000A4A002900D0084A9A67EFF310810122FC
:100EC00082F310881A688023106803431360E7E7F1
:100ED0002D0D0008A50D0008C30C0008F50C000836
:100EE000806A0023020010B55E321380083A138036
:100EF00001F0FEFE10BD7047F7B50168C14DCB692A
:100F000004000A6888682B4210D120252B4200D1AA
:100F10009BE08026760515400640354300D194E0DD
:100F2000636F2000002B00D085E085E0B64D0540C2
:100F30000095B64D009E1540354300D185E0250053
:100F400001269035334205D0D70503D50E622F68B0
:100F50003E432E60022633420CD0C7070AD5270035
:100F60000E6290373E680197B446042667463E43BA
:100F7000019F3E60042633420CD0C7070AD52700E4
:100F80000E6290373E680197B446022667463E439C
:100F9000019F3E600826B446334209D02027009EB8
:100FA0001740374304D066460E622F683E432E60DA
:100FB00080263601334206D0570104D50E62202127
:100FC0002E68314329602968002935D020210B4241
:100FD0000AD080235B0511400340194304D0636F9E
:100FE000002B01D02000984722682B684027966884
:100FF00028223E40134020001E4322D0FFF716FE59
:1010000023689B683B4218D0EFF31081012383F3E0
:101010001088250004CD9368BB43936081F310884A
:10102000E86F002809D07A4B8363FFF75DFC002846
:1010300002D0E86F836B9847F7BD200001F058FE9F
:10104000FAE701F055FE2E60F6E7E56E012D00D0BF
:101050009FE01026334200D19BE0324200D198E05D
:101060000E62896840230A001A40194257D0211D98
:10107000CA6F1068426892B2002ADDD027005C3740
:101080003F889742D8D927005E373A8002682020EF
:101090008446104000906046024232D1EFF3108740
:1010A00085F3108820685B4E02683240026087F347
:1010B0001088EFF3108785F3108820688268AA43B0
:1010C000826087F31088EFF3108785F3108820681B
:1010D00082689A43826087F31088230062468C33CB
:1010E0001A60009BE366EFF3108085F31088226896
:1010F0000F351368AB43136080F31088C86FFFF798
:10110000B9FB02232200236723005C325E331B8875
:101110001188C91A89B22000FFF7EDFE8CE7230081
:1011200020005C335E301988038800889BB2002859
:1011300000D181E7C91A89B2002900D17CE7EFF319
:10114000108785F310882068334E036833400360AE
:1011500087F31088EFF3108785F3108820682F4EEF
:1011600083683340836087F31088230020208C330A
:101170001860E2666267EFF3108085F3108810252F
:1011800022681368AB43136080F31088022323673F
:10119000C1E780256D032B4206D0460204D520000E
:1011A0000D6201F0E1FD47E780210B4207D0802569
:1011B0002D0411402840014301D0A36FB1E6402126
:1011C0000B4216D00A4214D0EFF31080012383F3B0
:1011D0001088226813688B43136080F31088230003
:1011E000202288331A6000232000A36701F079FDD4
:1011F00022E7190214D5510012D5200000F017FE85
:101200001AE7C0460F08000001000010200100048A
:10121000E10E0008FFFEFFFFDFFEFFFFFEFFFFEF16
:10122000DB0100D408E7002A00DB05E7200000F01E
:10123000FDFD01E70100F8B503008C310C68603357
:101240001A880368222C57D15B6A846D1340020010
:101250002370836D5E32013383651388013B9BB23B
:10126000138013889CB2002B42D1EFF31086013318
:1012700083F310880568234F2A683A402A6086F372
:101280001088EFF3108683F310880568AA689A43E4
:10129000AA6086F3108820220A60026804675268F8
:1012A000446712020AD5EFF3108183F310880268B5
:1012B000154C13682340136081F31088C36E012B13
:1012C00017D10022C266EFF3108483F310880168FF
:1012D0000F330A689A430A6084F310880268D16960
:1012E000194200D0136203005C331988FFF703FE34
:1012F000F8BD01F0EFFCFBE7082299690A439A6107
:10130000F6E7C046DFFEFFFFFFFFFFFB0200F8B578
:1013100003008C32116860331C880368222956D17F
:10132000596A836D214019800100023383655E3163
:101330000B88013B9BB20B800B889CB2002B42D1E7
:10134000EFF31086013383F310880568224F296874
:101350003940296086F31088EFF3108683F31088F4
:101360000568A9689943A96086F310882021116057
:10137000026804675268446712020AD5EFF31081CD
:1013800083F310880268154C13682340136081F3BF
:101390001088C36E012B17D10022C266EFF31084B0
:1013A00083F3108801680F330A689A430A6084F354
:1013B00010880268D169194200D0136203005C33BF
:1013C0001988FFF798FDF8BD01F084FCFBE70822BF
:1013D00099690A439A61F6E7DFFEFFFFFFFFFFFB13
:1013E0000300F0B560331B8885B0029303680400E6
:1013F000DD691A6803929A68019202008C321268C1
:10140000222A00D0C4E0030068331B88002B02D0DE
:1014100020231D4208D123005E331B889AB2002B83
:1014200000D095E005B0F0BD2600236802995B6A04
:10143000A26D0B401370A36D5E360133A365338834
:101440002268013B9BB233800723D5691D422FD010
:10145000063B1D4208D00399C90505D5210013623A
:101460009031086803430B6002231D4209D00199A3
:10147000C90706D52100136290310868DB180343C1
:101480000B6004231D4209D00199C90706D51362D8
:10149000220090321168023B0B4313602700903703
:1014A0003B68002B04D0200001F022FC00233B60AD
:1014B000338899B2002BABD1EFF31086013383F35D
:1014C00010882068354F02683A40026086F3108821
:1014D000EFF3108683F310882068314F82683A401A
:1014E000826086F31088220020208C3210602268EF
:1014F00021675268616712020AD5EFF3108183F306
:1015000010882268274813680340136081F310880D
:10151000E36E012B18D10022E266EFF3108083F313
:10152000108821680F330A689A430A6080F3108894
:101530002268D169194200D0136223005C33200075
:101540001988FFF7D8FC63E7200001F0C3FB5FE7D1
:10155000230068331B88934200D863E7EFF31080C1
:10156000012282F3108821680F4D8B682B408B601D
:1015700080F310880D4B6367EFF3108182F31088BE
:101580002023226810680343136081F3108849E721
:10159000082299690A439A6144E7C046FFFEFFFFAB
:1015A000FEFFFFEFFFFFFFFBFFFFFFEF351200081D
:1015B0000300F0B560331B8885B002930368040014
:1015C000DD691A6803929A68019202008C321268EF
:1015D000222A00D0C2E0030068331B88002B02D00F
:1015E00020231D4208D123005E331B889AB2002BB2
:1015F00000D093E005B0F0BD260023680298596A38
:10160000A26D014011800232A2655E363288013A35
:1016100092B232800722DD6915422FD0063A154278
:1016200008D00399C90505D521001A6290310868D0
:1016300002430A600222154209D00199C90706D562
:1016400021001A6290310868921802430A6004224D
:10165000154209D00199C90706D51A622200022352
:10166000903211680B431360270090373B68002BC2
:1016700004D0200001F03CFB00233B60338899B28A
:10168000002BADD1EFF31086013383F3108820686F
:10169000354F02683A40026086F31088EFF31086F7
:1016A00083F310882068314F82683A40826086F365
:1016B0001088220020208C32106022682167526836
:1016C000616712020AD5EFF3108183F31088226854
:1016D000274813680340136081F31088E36E012BE1
:1016E00018D10022E266EFF3108083F3108821689E
:1016F0000F330A689A430A6080F310882268D16920
:10170000194200D0136223005C3320001988FFF7D0
:10171000F2FB65E7200001F0DDFA61E723006833A2
:101720001B88934200D865E7EFF31080012282F313
:10173000108821680F4D8B682B408B6080F31088D8
:101740000D4B6367EFF3108182F31088202322682A
:1017500010680343136081F310884BE708229969EE
:101760000A439A6146E7C046FFFEFFFFFEFFFFEF18
:10177000FFFFFFFBFFFFFFEF0D1300080200F0B5B6
:10178000843211780300022001291FD01C0001219E
:101790008834223011702060EFF3108681F31088B6
:1017A0000C271D682868B843286086F31088EFF37B
:1017B000108081F31088196808230D682B430B6093
:1017C00080F310882023002023601070F0BD0200F9
:1017D000F0B5843211780300022001291FD01C00CB
:1017E00001218834223011702060EFF3108681F3DC
:1017F00010880C271D682868B843286086F3108875
:10180000EFF3108081F31088196804230D682B43CF
:101810000B6080F310882023002023601070F0BD3F
:10182000030088338C301B68006818437047000041
:1018300070B504002569A168036829436569C26918
:1018400029431868504D11432840014319605968D5
:101850004E48256A0140E06801435960A1699868D3
:1018600029434B4D284001430F209960D96A814399
:10187000606A0143D96247498B4215D10321464B27
:101880005B6D0B40013B022B6FD84449C85C802341
:101890001B029A4237D1082865D8FEF719FC6A6402
:1018A0000B643164646414003D495B18591E8B411C
:1018B0001801ECE7384B3B4819680906490F01311C
:1018C000FEF710FC0200616A374B49001000C95A4C
:1018D000FEF708FC656840006B08C0182900FEF799
:1018E00001FC0200314B103A9A423CD80F2302000F
:1018F00000079A4393B2400F22680343D3603CE051
:10190000FFF744F837E008282DD8FEF7E1FB052C57
:101910000A2C262C2C2C2900FFF75CF800282CD050
:1019200007E01D4B1F4819680906490F0131FEF7F2
:10193000D9FB626A1C4B5200D15AFEF7D3FB656893
:101940006B08C0182900FEF7CDFB0200174B103AB8
:101950009A4208D82368D8600FE0FFF717F8DDE750
:1019600080200002E5E7012008E080231B029A4264
:10197000D2D1FFF72FF8021EA5D100200C4BA36691
:1019800000236367A36770BDF369FFCFFFCFFFFF3D
:10199000FFF4FF110038014000100240CE5500084E
:1019A00000BCFFBF006CDC02D2550008EFFF000056
:1019B00001000100836A30B51A0706D50168284C7A
:1019C0004A682240846B22434A60DA0706D50168E0
:1019D000244C4A682240C46A22434A609A0706D5CA
:1019E0000168214C4A682240046B22434A605A072E
:1019F00006D501681D4C4A682240446B22434A6068
:101A0000DA0606D501681A4C8A682240C46B224364
:101A10008A609A0606D50168164C8A682240046CD2
:101A200022438A605A0610D50168134D4A68446CF7
:101A30002A4022434A6080225203944205D14A68D8
:101A40000E4C2240846C22434A601B0606D5026875
:101A50000B4953680B40C16C0B43536030BDC0460B
:101A6000FF7FFFFFFFFFFDFFFFFFFEFFFFFFFBFF0D
:101A7000FFEFFFFFFFDFFFFFFFFFEFFFFFFF9FFF16
:101A8000FFFFF7FFF7B504000D0017000093226871
:101A9000D3692B405B1B59424B41BB4201D0002014
:101AA00021E0089B0133F3D0FEF700FE009BC01A33
:101AB000089B984228D8002B26D023681A68520722
:101AC000E5D5DA69082611003140019132420BD088
:101AD00020001E62FFF7AAF8230090331E60002347
:101AE000012084342370FEBD8022D9691201114285
:101AF000CDD01A622000FFF799F8230020229033FE
:101B00001A60019B843423700320ECE7030073B553
:101B10000026040090331E60FEF7C8FD2368050010
:101B20001B681B071FD58021284B320000938903B7
:101B300003002000FFF7A6FFB04214D0EFF310819E
:101B4000012383F310888020226813688343136085
:101B500081F310882300202288331A600320002399
:101B60008434237076BD260023688C361B685B079F
:101B700023D58021154B0022009320002B00C903A0
:101B8000FFF780FF002818D0EFF31080012282F3C6
:101B9000108821680E4D0B682B400B6080F3108875
:101BA000EFF3108082F3108821688B6893438B6079
:101BB00080F3108820233360D0E723002022002008
:101BC00088331A603260E0662067C8E7FFFFFF01D4
:101BD000DFFEFFFF70B5041E01D1012070BD0500BE
:101BE00088352B68002B04D1020084321370FFF774
:101BF00017F92423012122682B6013688B4313609B
:101C0000A36A002B02D02000FFF7D4FE2000FFF7CC
:101C10000FFE0128E1D0236807495A6820000A40D6
:101C20002A215A609A688A439A60012219680A43F5
:101C30001A60FFF76BFFD1E7FFB7FFFF70B5041E17
:101C400001D1012070BD050088352B68002B04D11F
:101C5000020084321370FFF7E3F824230121226885
:101C60002B6013688B431360A36A002B02D0200003
:101C7000FFF7A0FE2000FFF7DBFD0128E1D023687D
:101C800009495A6820000A4022215A609A688A430A
:101C90009A60082299680A439A60012219680A43E7
:101CA0001A60FFF733FFCDE7FFB7FFFF03005C3398
:101CB00070B5816580241A805A800023816843674B
:101CC0006401A1424CD1036959424B411B02FF33CD
:101CD000010060310B800300002190331960223134
:101CE000043B1960EFF31084012383F3108801682B
:101CF0008D682B438B6084F3108880258021466E8D
:101D000084680369AD054901AE423BD105006835E1
:101D10002D88954236D82A4A8C4203D1294A002B75
:101D200000D0274A4267002B0BD0EFF3108101232C
:101D300083F310880268FF3314682343136081F330
:101D40001088EFF31081012383F310888023026849
:101D50005B0590680343936081F31088002070BD99
:101D6000002905D10169FF230029B1D0803BAFE7ED
:101D700080246405A142ABD101697F230029A7D04B
:101D8000403BA5E7104A8C4203D1104A002B00D0FB
:101D90000D4A42670122002B0AD0EFF3108182F333
:101DA0001088902302685B00106803431360D3E738
:101DB000EFF3108182F31088026820231068F4E7A3
:101DC000E1130008B1150008351200080D130008D2
:101DD00003008C3070B504680220202C25D1013816
:101DE000002922D0002A20D080209C684001844213
:101DF00005D11869002802D10130014215D1002017
:101E0000D8661868406800020CD5EFF310850120F1
:101E100080F3108880201C68C0042668304320604E
:101E200085F310881800FFF741FF70BD70477047B9
:101E3000836810B50400002B05D0032201009847E9
:101E40000023A360E36010BD836810B50400002B7D
:101E500002D0032201009847200010BD0B4A030066
:101E600090420FD00A4A90420ED00A4A0220934272
:101E700009D0094A0130934205D0084A0130934203
:101E800001D0FEE7002070470120FCE7002C014054
:101E90000004004000200040004401400048014090
:101EA00070B504000069FFF7D9FF0500200010306D
:101EB00000F0CCFC0022084BAD00EA5026002500C3
:101EC000E260B4356436B54204D0103D2800FFF717
:101ED000BBFFF8E7200070BDB8000020F8B5040093
:101EE00008000D00FFF7BAFF2369002B00D0FEE7C2
:101EF00021001A4A80000C31815022002C322561C9
:101F000026001370203223636363A363E3632364B7
:101F10006364A364137053700322103630002500ED
:101F20002700E460E265236600F03CFC6435B437CA
:101F300028001035FFF77CFFBD42F9D10023084A85
:101F400023606360A3606361A36123626362803383
:101F50003000E261A362FEF73BFEF8BDB80000204E
:101F6000FFFF0000044B10B51868002802D00430B1
:101F7000FEF746FD10BDC046B800002010B5FFF7C3
:101F8000F1FF10BD044B10B55868002802D0043092
:101F9000FEF736FD10BDC046B8000020044B10B55A
:101FA0009868002802D00430FEF72AFD10BDC04614
:101FB000B8000020044B10B5D868002802D00430C7
:101FC000FEF71EFD10BDC046B8000020044B10B542
:101FD0001869002802D00430FEF712FD10BDC0467B
:101FE000B800002010B50C220021040001F0A2FC72
:101FF00000232000E36010BDF8B5050007000400D1
:102000000E006435B43728001035FFF7EBFFBD42F2
:10201000F9D10023310020002361FFF75FFF20008A
:10202000F8BD836810B5002B01D103F075FAC368C1
:10203000984710BD10B5002800D1FEE700F0B0FBB6
:102040000068C36E002B02D06430FFF7EAFF10BDBA
:1020500010B5FFF7EFFF10BD030010B5002800D149
:10206000FEE7007F0138072812D8FEF731F8041682
:102070001112111111140124180000F091FB240118
:102080000068643400198368002B01D0FFF7C9FF92
:1020900010BD0324F0E70424EEE70224ECE710B5BA
:1020A000FFF7DAFF10BD10B5FFF7D6FF10BD000037
:1020B000014B18607047C0464000002010B501F089
:1020C00073FB10BD10B501F079FB10BD7FB5002387
:1020D00004280FD81B4B5A6BFDF7FAFF030F18218A
:1020E0002A0001210A435A635B6B0B400193019B59
:1020F000A023DB05180007B000BD02210A435A6384
:102100005B6B0B400293029B0F4BF3E704210A43E6
:102110005A635B6B0B400393039B0C4BEAE708216C
:102120000A435A635B6B0B400493049B084BE1E743
:1021300020210A435A635B6B0B400593059B054BBB
:10214000D8E7C046001002400004005000080050CC
:10215000000C005000140050F7B5134B0600190096
:10216000019300F0EBFAFFF779FE104F8400E3597A
:10217000002B0DD1B420FFF7A1FF0199050030001D
:1021800000F0DCFA01002800FFF736FFE3591D607C
:102190003B591C68002C06D02000FFF781FEB421BB
:1021A0002000FFF78FFFF7BD08580008B800002097
:1021B00010B5FEF77BFA10BD704710B5FEF76AFA4E
:1021C000FEF7E9FAFFF7F8FF10BD704780210E4BCC
:1021D0004905DA6B84B00A43DA63DA6B0A400121FD
:1021E0000192019A1A6C0A431A641A6C0A408021FF
:1021F0000292029A9A6B49010A439A639B6B0B40C5
:102200000393039B04B070470010024010B5FFF722
:10221000DDFFFEF72BFAFFF7D8FF00F0D7FD0248ED
:10222000FEF7BEFA10BDC0461C00002010B50C22FF
:102230000021040001F07EFB0023E36010BD0000DC
:10224000002310B501280BD114225A43064B101D50
:10225000C0188168002902D09B181B69984710BDDF
:1022600001334008DBB2EDE7CC00002010B5FFF7EA
:10227000E7FF10BD10B5FFF7E3FF10BD10B501205B
:10228000FEF770FB0220FEF76DFB10BD10B50420B9
:10229000FEF768FB0820FEF765FB10BD70B50C2447
:1022A0001025A8B2013CFEF75DFB6D00002CF8D1B3
:1022B00070BD0000F8B505252E4F2F4C3800257055
:1022C000FFF7B4FF2D4E25753000FFF7AFFF230059
:1022D000013528332A481D70FFF7A8FF230029483D
:1022E0003C331D70FFF7A2FF230001355033264811
:1022F0001D706037FFF79AFF24483D706036FFF786
:1023000095FF23483570FFF791FF230021488C3358
:102310001D70FFF78BFF23001F48A0331D70FFF7D0
:1023200085FF23001D48B4331D70FFF77FFF230096
:102330001B48C8331D70FFF779FF23001948DC33B1
:102340001D70FFF773FF23002600F03316481D7041
:10235000FF36FFF76BFF15487571FFF767FF1448ED
:102360007576FFF763FF962312485B00E554FFF78D
:102370005DFFF8BDD0000020CC000020E40000206C
:10238000F80000200C010020200100203401002072
:10239000480100205C010020700100208401002021
:1023A00098010020AC010020C0010020D4010020D1
:1023B000E8010020FC01002010B5044C143C201D55
:1023C000FFF742FD024B9C42F8D110BD0C020020E9
:1023D000CC000020F7B54D080600C76801920C003C
:1023E00008002B001F22002B1DD190402033002815
:1023F00002D0FDF73DFFC3B203225B009A401F23CA
:1024000097430122002D19D1200098402023002855
:1024100002D0FDF72DFFC3B2019A5B009A40130072
:102420003B43F360F7BD41000091180001210840D3
:102430000099013A014308005B08D4E729006400D1
:1024400011400C43013B6D08DCE7431C04D1002024
:102450007047834204D00C310B685A1CF9D1F6E75F
:102460000120F5E7F0B587B006000191431C00D1CB
:10247000FEE70F23A24A0340C0B29B0009389F58D1
:1024800003280ED8FDF724FE02485257C02332001D
:102490009B011A409A4204D108239A4A11680B43BF
:1024A00013603006000FFFF711FE1F22836804003F
:1024B0000121380002937B080093002B3FD190400C
:1024C0002033002802D0FDF7D3FEC3B203225B0005
:1024D0009A40029B38009343039301221F23009DDF
:1024E000002D33D198402023002802D0FDF7C0FEF4
:1024F000C3B2072201995B001140043A9A401300CD
:10250000039A02911343A360032900D9DDE0080078
:10251000FDF7DEFD24DC6123C02332009B011A405D
:102520009A42BED1774A10231168B8E70821754A4C
:1025300013688B43B4E7734A10211368F9E71D0051
:1025400040000D402843013A5B08B6E729004000EF
:1025500011400843013B6D08C2E7032538001F22E4
:102560002668009B002B00D0B2E09040203300286A
:1025700002D0FDF77DFEC3B203225B009A40380013
:1025800096431F2301220099002900D0ABE0984018
:102590002023002802D0FDF76BFEC3B25B009D40F4
:1025A000029B3543013B2560012B06D8019B1B078D
:1025B00000D4A1E063683B436360019B9A06920FDD
:1025C000012A02D0022A00D0002239002000FFF7A1
:1025D00001FF07B0F0BD019B5B045B0E03937F2BF3
:1025E00001D10225BAE736073BD5636A3E0A7D0A68
:1025F000049330002B001F22002B20D19040203369
:10260000002802D0FDF734FEC3B20F229B009A408F
:10261000049B9343049301221F23002D1AD1300001
:1026200098402023002802D0FDF722FEC3B2039A6F
:102630009B009A401300049A13436362D1E7410060
:1026400005911800012108400599013A014308004D
:102650005B08D1E72800760010400643013B6D0877
:10266000DBE738001F220121256A009B002B1ED1C9
:1026700090402033002802D0FDF7FAFDC3B20F22AC
:102680009B009A403800954301211F22009B002B9C
:1026900014D190402033002802D0FDF7E9FDC3B2E9
:1026A000039A9B009A4013002B43236299E71E0074
:1026B00040000E403043013A5B08D7E71E0040005F
:1026C0000E403043013A5B08E1E7FEE7012545E7AC
:1026D000410003911800012108400399013A014388
:1026E00008005B083EE7009940001140084300994C
:1026F000013B4908009146E76368BB435CE7C0467D
:10270000EC5500080000014010B5431C07D110BD76
:10271000834203D18968FFF7A5FEF8E70C310B6807
:102720005A1CF5D1FEE70B685A1C01D1002002E0CB
:10273000834201D1486870470C31F4E7002310B59B
:10274000421C02D0FFF7EFFF0300180010BD4B68DA
:10275000002B02D10120404202E0834201D10868EF
:1027600070470C31F3E710B5002802D0FFF7EFFFF8
:1027700010BD01204042FBE7030008008B4205D05A
:10278000002B03D0424250414042184070470000A5
:102790008022024B12059A607047C04600ED00E0AF
:1027A000043870470368234A86B093420BD18021D6
:1027B000214B09011A6C0A431A641B6C0B400193EC
:1027C000019B06B070471D4A934209D102211A4B62
:1027D000DA6B0A43DA63DB6B0B400293029BF0E790
:1027E000174A93420AD18021134B09021A6C0A43FB
:1027F0001A641B6C0B400393039BE2E7114A93425C
:102800000AD180210C4B89021A6C0A431A641B6C92
:102810000B400493049BD4E70B4A9342D1D180210F
:10282000054BC9021A6C0A431A641B6C0B400593D2
:10283000059BC6E7002C0140001002400004004048
:102840000020004000440140004801400368134A52
:10285000934205D1124A1349136C0B40136407E0ED
:10286000114A934205D102210D4AD36B8B43D363A6
:1028700070470E4A934203D1094A0D49136CECE7A5
:102880000C4A934203D1064A0B49136CE5E70B4A05
:102890009342EDD1024A0A49136CDEE7002C014055
:1028A00000100240FFF7FFFF00040040002000403E
:1028B000FF7FFFFF00440140FFFFFDFF0048014094
:1028C000FFFFFBFF0300421C13D00E4A904213D0BF
:1028D00007D80D4A904211D00C4A1320934207D0DA
:1028E000FEE70B4A90420BD00A4A16209342F7D1DA
:1028F00070470E204042FBE70D20F9E71020F7E774
:102900001520F5E7002C01400004004000200040A5
:1029100000440140004801400300421C13D00E4A0D
:10292000904213D007D80D4A904211D00C4A132080
:10293000934207D0FEE70B4A90420BD00A4A16207A
:102940009342F7D170470E204042FBE70E20F9E793
:102950001020F7E71520F5E7002C014000040040A7
:10296000002000400044014000480140F8B5040048
:10297000FFF718FF2068FFF7A5FF226DE16CFDF758
:102980009BFE2068FFF79EFFFDF7C0FE276838001A
:10299000FFF7C2FF05003800FFF794FF854209D01A
:1029A0002800226DE16CFDF787FE2068FFF7B4FF79
:1029B000FDF7ACFEF8BD0000F0B589B0059303004B
:1029C0000400A0331868039127005E490492FFF7C2
:1029D000B5FEA4375C49050026003868FFF7AEFE57
:1029E000A8365A4900903068FFF7A8FE2300AC33A0
:1029F000019057491868FFF7A1FE0290002D00D101
:102A000084E03B68013302D0009B002B7ED033680A
:102A1000013302D0019B002B78D02300AC331B681C
:102A2000013302D0029B002B70D000992800FFF7E1
:102A3000A3FE01992060FFF79FFE02992060FFF737
:102A40009BFE2060002861D0424B984260D18022DA
:102A5000414BD201196B414811431963196B014075
:102A60001963196C114319641B6C13401B220693E4
:102A7000069B2300B0331A802300A0331868314925
:102A8000FFF742FE009B002B05D02300A4332E4904
:102A90001868FFF739FE0025019BAB4207D02300E1
:102AA000A8332A491868FFF72FFE0135FF35029B2E
:102AB000002B08D080239B001D432300AC33244906
:102AC0001868FFF721FE2200B1321278244B261D30
:102AD0009200D650236800226360039BB020A3605D
:102AE000049BE561E3600E9B22622361059BE26229
:102AF00063610C236262A36120560121FDF7DCFDB6
:102B0000009B3000002B1AD1FFF798F809B0F0BDF8
:102B1000144B9842B0D180220F4B9202D96A1248CE
:102B20001143D962D96A0140D962D96B1143D96383
:102B3000DB6B13408E220793079B520099E7FFF748
:102B400049F8E3E79C57000818570008AC560008FE
:102B50004C5600080038014000100240FFBFFFFF44
:102B60000C02002000440040FFFFFDFF13B50028C9
:102B700003D0049C0094FFF71FFF13BD10B5B130C4
:102B80000278064B9200D058FEF74AFE22231840E6
:102B9000223843425841C0B210BDC0460C0200204A
:102BA00010B5B1300278064B9200D058FEF738FECF
:102BB00021231840213843425841C0B210BDC046BD
:102BC0000C02002070B504000E00002802D1012084
:102BD000404270BDFFF7D2FF051EF8D12100B2318F
:102BE0000B78B13433702078034B80000122C05839
:102BF000FFF7EEF82800ECE70C02002070B50400A7
:102C00000D0000281AD0FFF7B9FF002816D12300C5
:102C100098331D6025000020B0352856FDF782FD51
:102C20002100B1342078064B80000122C058B23117
:102C3000FFF7CEF800202856FDF768FD70BDC046AE
:102C40000C02002070B50400150000281BD0030002
:102C5000060000209C331960B0363056FDF762FD47
:102C600023002100C233B8311B880968B1342078B1
:102C7000C918054B8000C058AAB2FEF7D3F800204F
:102C80003056FDF743FD70BD0C02002010B5002842
:102C90000BD00300A4331B68013306D1B130027896
:102CA000024B9200D058FEF769FD10BD0C020020C7
:102CB00010B500280BD00300A4331B68013306D1E4
:102CC000B1300278024B9200D058FEF780FD10BD63
:102CD0000C020020030010B594331B680438984799
:102CE00010BD030010B598331B680438984710BD19
:102CF0000122036810B5D96904000438114201D0DB
:102D00001A620BE00222D9691142F9D10422D96971
:102D10001142F5D10822D9691142F1D1FFF72EFFF6
:102D2000002805D1210001222000AE31FFF750F824
:102D300010BD000010B51B20FDF71EFD024B1868EA
:102D4000FEF7DAF810BDC0460C0200201C2010B5BA
:102D5000FDF712FD034B5868002801D0FEF7CCF8B0
:102D600010BDC0460C020020010010B50122AE319A
:102D7000FFF72EF810BD000003000A4910B50868DF
:102D8000C318EFF30882934205D90C220120064BA9
:102D900040421A6010BD054A054C121B9342F4D202
:102DA0000B60F7E744000020CC0400200030002036
:102DB00000040000FEE7000016220120014B404203
:102DC0001A607047CC040020012070470723174980
:102DD00010B50A689A43063B134380220B60144BDC
:102DE000520219680A431A6080229202196811423D
:102DF000FCD09A680F490A409A600722996891436B
:102E0000063A0A4338219A609A680A40082AFBD198
:102E10009A68094909480A409A60FFF749F903206E
:102E2000FDF7FCFB002800D0FEE710BD00200240AB
:102E300000100240FFF0FFFFFF8FFFFF006CDC027D
:102E4000AA23A8215B00C35A4900405A4033181AEC
:102E50003F2318407047AA235B00C25A043BC35A61
:102E60009A4203D0FC30C26CD05C704701204042D3
:102E7000FBE7A923AB225B005200C35C805AC0B2BF
:102E8000834202D3C01A3F307047C01A0138FBE7B3
:102E900013B56B460268D9710733546819000122D3
:102EA000A04716BD37B56B46DD1D29000400FFF7AE
:102EB00089FE002810D122003F21C032138801333F
:102EC0000B402100BC3109888B4205D0B4341188F5
:102ED00020682D784554138037BD000003000100A1
:102EE00070B5C233C4311A880C6812193F242240CD
:102EF0001A800200BE3212881D880024AA4217D010
:102F00001D8840321C880B4B521BA4B21A4004D5BA
:102F10004023013A5B421A43013240231B1B9A4271
:102F200000D91A000A6001240349FFF78BFE6442AE
:102F3000200070BD3F000080DD2E0008F7B503685B
:102F400000919B68019204009847A92340255B00EB
:102F5000E35A0700ED1A012323742300FC33DB6BD3
:102F600001330AD1AE235B00E25C002A05D00022C7
:102F70002000E2549430FFF789FE236820009B680C
:102F800098470028F9D0019EB54227D3BE4225D8E4
:102F9000A92327005B00E35AFC37386D9A19C01843
:102FA000402A34D83200009900F00AFD3500A922E9
:102FB0005200A35A3F219B1926000B409436300043
:102FC000A352FFF7EDFD002806D1FC342A003000A3
:102FD0001549E565FFF736FE0198FEBDBD4200D9F3
:102FE0003D0023682A005B68009920009847009BF9
:102FF00020005B1900932368761B9B689847A923E0
:103000005B00E55A133BFF3B07005D1BBCE7402517
:10301000ED1A2A00009900F0D3FC009B386D721B5A
:10302000591900F0CDFCC2E7DD2E000810B5914221
:1030300001D1012149420400FC342364029BA263B4
:1030400063640300AA221133E36400235200E163A6
:103050008352020051322265AB22520063658352D3
:1030600010BDF7B5037C04000D00002B16D0FDF752
:103070001DFBA927AB2601907F007600E25BA35BD6
:103080009A420BD0002DFAD0FDF710FB019BC01A1D
:103090008542F3D8A923A25B5B00E252F7BD10B5CD
:1030A0000021FFF7DEFF10BDCBB210B52D2B09D8E4
:1030B000E0220F4C9B00D2000A4019591143FC300A
:1030C000C16310BDC0220A40C02A0ED1D22B0CD839
:1030D0003F23084C0B409B001B59E024044A9B00F3
:1030E0009B58E40021401943E9E701214942E6E702
:1030F000A85B00085C5B0008CBB210B52D2B09D88B
:10310000E0220F4C9B00D2000A4019591143FC30B9
:10311000816310BDC0220A40C02A0ED1D22B0CD828
:103120003F23084C0B409B001B59E024044A9B00A2
:103130009B58E40021401943E9E701214942E6E7B1
:10314000A85B00085C5B00080023F0B54360FA232D
:103150009B0083601E4B050003600123FC355B422E
:10316000EB631C4B85B004000E000392984218D10B
:10317000C7212000FFF798FFC6212000FFF7BCFF02
:103180000123039A5B42012A00D1EB6300930123E0
:103190002000AA6BE96B5B42FFF748FF200005B0F7
:1031A000F0BD0D4A0D4F92690D4B92003900D05879
:1031B000FFF7C4FA8642DBD00A493000FFF7D3FAA2
:1031C0003900E8633000FFF7CEFAA863D8E7C046BD
:1031D0007C5C0008140200205C5B00089C5700081F
:1031E000A85B0008185700080300FC33DB6B10B520
:1031F000040001330DD10368DB689847AE235B0000
:10320000E25C002A05D120000132E2549430FFF73D
:103210004FFD10BD0300FC3373B559665E23FF33C9
:10322000C254573BFF3B1340023BDBB20400002675
:10323000042B01D81348C65C30231340302B19D11E
:10324000C0230136DB00073E022E19D825001207E5
:103250000D48D20F9435B600520300923258280020
:10326000FFF784FC2000FFF7BFFF28000749FFF7A6
:10327000C5FC73BD00239006E5D580230136E1E748
:10328000FEE7C0466C5C0008605C0008A52E0008E4
:1032900010B50400FFF7A8FFAA23A8225B00520084
:1032A000E15AA35A994208D02100FC31C96CC85C8C
:1032B0003F2101330B40A35210BD01204042FBE7E8
:1032C00010B5002202480349FFF73EFF10BDC0467B
:1032D000140200200044004070B505000C00081ED8
:1032E00007D0FCF7EDFE2B680200210028005B6888
:1032F000984770BD10B5FFF7EFFF10BD10B503681C
:103300001B68984710BD000010B50249FFF7E4FFA5
:1033100010BDC046BF55000870B50400FFF7DCFFC4
:1033200005002000FFF7F0FF401970BD10B5FFF752
:10333000F3FF10BDF0B58BB06B46140000220533CF
:103340000600DA77012C00D80A2409AD0F0021000D
:103350003800FCF7C7FE03006343FB1ADBB21A0018
:1033600037320100D2B2092B01D83033DAB2013D35
:103370002A70BC42EAD929003000FFF7ADFF0BB03C
:10338000F0BD0000F7B50600081C0C1C150001F08C
:1033900085FC3D4900280ED167007F083B49381C59
:1033A00001F07CFC00280CD13849381CFCF742FFA6
:1033B000002806D136493000FFF78EFF04002000B8
:1033C000FEBD3449201CFCF73FFF002801D03249E4
:1033D000F1E73249201CFCF723FF0028F7D1002138
:1033E000201CFCF71DFF002845D02D213000FFF7E1
:1033F00085FF80231B060090E418FC200027800531
:10340000AF423AD1011C201C00F0D6FD071C00F091
:10341000BBFD0A22010001903000FFF78BFF009BEB
:103420001C18002DCBD0019801F06EFC011C381C3B
:1034300001F06EFA2E21071C3000FFF75FFF241801
:10344000002DBCD01649381C01F022F9071C00F0F1
:103450009BFD0A22010000903000FFF76BFF24184B
:10346000009801F051FC011C381C01F051FA013D9B
:10347000071CEDB2E4E70090BFE70949013700F00F
:103480003BFFFFB2BCE7C046C2550008FFFF7F7F8D
:10349000C6550008FFFF7F4FCA550008FFFF7FCFCA
:1034A0000000204110B5D2B2FFF76CFF10BD70B51F
:1034B000D2B20400FFF766FF05002000FFF724FFEB
:1034C000401970BD10B5040000F046F9E0602368B3
:1034D00020005B699847002808DA00F03DF9E368AE
:1034E000C01AA3689842F2D30120404210BDF8B53B
:1034F00006000F0015000024AC4201D12000F8BDE9
:103500003000FFF7DFFF0028F8DB38550134F3E720
:10351000F7B50F0016001D001C1E01900BD00024F3
:103520000198FFF7CFFF002805DBB84203D03055E4
:103530000134A542F4D12000FEBD10B500F02EF9F3
:1035400010BD10B500E000BFFCF796FFFCF7C2FF0E
:1035500000F014F9FAE700000D488546FFF718F966
:10356000002103E00B4B5B58435004310A480B4BDE
:1035700042189A42F6D30A4A02E00023136004324A
:10358000084B9A42F9D300F0F5F9FFF7DAFFFEE7AE
:1035900000300020745D000800000020980000202A
:1035A00098000020D4040020FEE70000F7B5C3B265
:1035B000040001912D2B29D8E02226499B005C585C
:1035C000D20002401443631C37D00F262509354032
:1035D000214FAD00EB592640F340DB070DD520000D
:1035E0001E49FEF732FF002802D02000FEF7B4FD8E
:1035F0000122B2407B5993437B51019B052B27D875
:103600001800FCF765FD16211B1D1F23C022024078
:10361000C02A12D1D22B10D83F23114903409B005E
:103620005B58E0210B4A9B009B58C9000C401C438F
:10363000C9E700212000FEF715FFF7BD1021F9E7CB
:103640002021F7E70321F5E70121F3E70921F1E75D
:10365000FEE7C046A85B0008780300200858000871
:103660005C5B0008C3B210B52D2B17D8E022174CB5
:103670009B00D200024018591043030600221B0F82
:10368000042B02D8124A9B009A580F24114B204059
:103690008000C358002917D0936110BDC02202409A
:1036A000C02A0ED1D22B0CD83F230B4C03409B00D9
:1036B0001B59E024054A9B009B58E4002040184316
:1036C000DBE701204042D8E79362E6E7A85B000809
:1036D00008000020EC5500085C5B0008C3B22D2BED
:1036E0000ED8E02218499B00D200024058581043DF
:1036F0000F2103090B40042B18D900231B69FFDE9F
:10370000C0220240C02A0ED1D22B0CD83F230F4931
:1037100003409B005B58E0210B4A9B009B58C9006B
:1037200008401843E4E701204042E1E7084A9B00D3
:103730009A580840074B8000C35810691840C01AB7
:10374000434258417047C046A85B00085C5B0008D4
:1037500008000020EC55000810B5FEF729FD10BD4B
:1037600070B5041E09D0FEF723FD050000F01AF81D
:10377000FEF71EFD401BA042F8D370BD054B10B5EF
:10378000002B06D00448FFF75BFB002801D000E0C7
:1037900000BF10BD000000001402002010B5FEF7AD
:1037A00035FD10BD7047000010B5034B01001868CF
:1037B00000F030F810BDC0464800002010B5034BA3
:1037C0000100186800F006F910BDC046480000204E
:1037D00070B50F4E0D0031680400002902D100F0D1
:1037E000B1F830602900200000F0ACF8431C03D190
:1037F00001256D42280070BD0323C51C9D43A842CE
:10380000F8D0291A200000F09DF80130F2D1EFE73E
:103810008C030020F7B50322CB1C9343083305002B
:103820001F000C2B34D20C27B94233D8280000F0EB
:1038300071F8374E33681C00002C2FD13900280056
:10384000FFF7C6FF0400431C5FD134680094009B5F
:10385000002B4AD1002C52D023682800E31800998D
:10386000019300F06FF8019B834248D12368280040
:10387000FF1A3900FFF7ACFF013040D02368DB1995
:10388000236033685A68002A33D1009B336019E003
:10389000002BC9DA0C232B600020FEBD2168C91B58
:1038A00020D40B290AD9E2192760A34204D132603F
:1038B00063681160536005E05A60F9E76268A342EB
:1038C0000ED13260280000F02DF8200007220B30C6
:1038D000231D9043C21A9842DFD01B1AA350DCE785
:1038E0005A60EFE723006468A6E7009C63680093D2
:1038F000ADE71A005B68A342FBD10023DAE70C2393
:1039000028002B6000F00EF8C6E70760DAE7C04633
:103910009003002010B5024800F050F810BDC046DA
:10392000D004002010B5024800F049F810BDC04690
:10393000D004002003008218934200D17047197010
:103940000133F9E7002370B5064D040008002B6031
:10395000FFF712FA431C03D12B68002B00D0236021
:1039600070BDC046CC040020014B18687047C046AB
:103970004800002070B500260C4C0D4D641BA410AF
:10398000A64209D1002601F0CBFD0A4C0A4D641B6A
:10399000A410A64205D170BDB300EB58984701367C
:1039A000EEE7B300EB5898470136F2E75C5D00089C
:1039B0005C5D00086C5D00085C5D00087047704746
:1039C000002310B59A4200D110BDCC5CC454013321
:1039D000F8E7000070B505000C1E10D0043C236809
:1039E000002B00DAE4182800FFF794FF1D4A136843
:1039F000002B05D1636014602800FFF793FF70BDB2
:103A0000A34208D9206821188B42F3D119685B685A
:103A100009182160EEE71A005B68002B01D0A34271
:103A2000F9D911685018A0420BD120680918501814
:103A300011608342E0D118685B68411811605360DF
:103A4000DAE7A04202D90C232B60D5E720682118C1
:103A50008B4203D119685B68091821606360546068
:103A6000CAE7C04690030020062010B500F02CF8ED
:103A70000120FFF79FF970B504000D001F2904D93C
:103A8000162303600120404270BDC36B002B04D09D
:103A90008A009B181A68002A08D1200000F030F82C
:103AA0002A000100200000F019F8EDE7012A09D0F2
:103AB000511C03D1162303600120E5E700212800F3
:103AC000196090470020DFE710B5034B010018682C
:103AD000FFF7D1FF10BDC04648000020002370B59D
:103AE000064D0400080011002B60FFF765F9431C28
:103AF00003D12B68002B00D0236070BDCC040020C4
:103B000010B5FFF761F910BD10B500F093F810BDC6
:103B100070B5041C00F01AF8211C051C201C01F0D3
:103B2000BDF8002805D10021201CFCF779FB0028F6
:103B300001D1281C70BDFFF717FF2123002103606E
:103B4000081C00F0D9FB051CF3E7C046F0B5FF21C7
:103B5000C6464300020000B5041C5B08C9058B4241
:103B600052D2002B4DD0002855DBC315014208D19D
:103B700080210023090452001C0001330A42FAD0BC
:103B8000634280241E005202520A24047F3E1443E2
:103B9000DB0700D46400802219210027002576105D
:103BA00064005204A8182300A04202DC8518231ADE
:103BB000BF1801395C0052080029F3D1002B19D03D
:103BC0001A4C1B4D206829682368984600F0A0FE17
:103BD000011C4046FCF72EFB00280BD0206829680A
:103BE00000F0EAF92468011C201CFCF719FB0028EE
:103BF00018D00237FC239B059C467F106744F005D4
:103C0000C01980BCB846F0BD011C00F041FD211C6C
:103C100000F0D2F9F5E7011C00F07AFE011C00F07B
:103C20006BFBEEE7012301379F43E3E7A45C000849
:103C3000A05C0008F8B5FF254A00031C5208081CC8
:103C4000ED05AA422BD859009C464908A94226D81E
:103C5000FE24A405A04234D0022487173C40DF0F85
:103C60003C4300291FD0002A24D0AA4231D0A942C7
:103C700020D0891AC9153C2929DC002833DA3C31C7
:103C800031DA0020012C3FD0022C35D0002C09D095
:103C9000244900F091F9244900F03AFE02E0191C91
:103CA00000F08AF9F8BD022C09D0181C032CF9D1B8
:103CB0001E48F7E76346002B07DB1D48F2E71A486A
:103CC000F0E7181C00F03EF8ECE71A48EAE718485D
:103CD000D8E7013C91421CD00020022CE2D8164BC0
:103CE000A400E058DEE7011C181C00F005FB00F002
:103CF00047F900F027F8C5E70A4900F05DF9011C13
:103D0000094800F005FECDE780231B069C46604471
:103D1000C8E7022C03D8094BA400E058C2E70848C2
:103D2000C0E7C0462EBDBB33DB0F4940DB0F49C0A7
:103D3000DB0FC93FDB0FC9BFA85C0008B45C0008FB
:103D4000DB0F493FF0B5A123C6464500060000B58C
:103D5000041C6D08DB059D420BD3FF23DB059D4250
:103D600000D978E0002800DC88E0704880BCB846C4
:103D7000F0BD6F4B9D4200D982E0C4239B059D425C
:103D80006DD301235B429846211C201C00F080FC6F
:103D9000011C071C00F07CFC6649051C00F078FC47
:103DA000654900F009F9291C00F072FC634900F034
:103DB00003F9291C00F06CFC614900F0FDF8291C96
:103DC00000F066FC5F4900F0F7F8291C00F060FC89
:103DD0005D4900F0F1F8391C00F05AFC5B49071C02
:103DE000281C00F055FC5A4900F092FD291C00F0F7
:103DF0004FFC584900F08CFD291C00F049FC564945
:103E000000F086FD291C00F043FC544900F080FDC1
:103E1000291C00F03DFC011C381C00F0CDF8211CD1
:103E200000F036FC4346013348D043469F004C4BDC
:103E30004C4DF95800F06CFD211C00F069FD011C8F
:103E4000785900F065FD002E00DB8FE780231B060C
:103E50009C4660448AE7011C00F0AEF886E74249C0
:103E600000F0AAF8FE218905FCF7EEF90300201CFA
:103E7000002B00D07AE7013B984685E73B4875E781
:103E800000F07EF83A4B041C9D421CD8394B9D42F1
:103E90003AD8011C00F090F8FE21890500F038FDA9
:103EA0008021051CC905201C00F086F8011C281C77
:103EB00000F022FA0023041C984665E7011C201C30
:103EC00000F026FD52E72C4B9D4215D8FF218905B5
:103ED00000F01EFDFF21051C8905201C00F0D8FB09
:103EE000FE21890500F068F8011C281C00F004FA86
:103EF0000223041C984647E7011C204800F0FCF907
:103F00000323041C98463FE7FE21890500F000FDCD
:103F1000FE21051C8905201C00F04EF8011C281C00
:103F200000F0EAF90123041C98462DE7DB0FC93F96
:103F3000FFFFDF3ED769853C59DA4B3D356B883D45
:103F40006E2EBA3D2549123EABAAAA3E21A215BD4E
:103F50006BF16E3D95879D3D388EE33DCDCC4C3E5B
:103F6000C05C0008D05C0008CAF24971DB0FC9BF11
:103F7000FFFF973FFFFF2F3FFFFF1B40000080BF69
:103F8000400040087047C0469E2110B5C905041C7A
:103F9000FCF764F9002803D1201C00F095FE10BD49
:103FA0009E21201CC90500F0B3FC00F08DFE80238B
:103FB0001B069C466044F2E7F0B5C64643025B0A26
:103FC0009C461F00DE004B025A0A450090464A00FC
:103FD0002D0E120EC40F00B5C90F9B09A81A8C42F2
:103FE00021D000280DDD002A2DD1002B00D195E035
:103FF000421E012800D131E1FF2800D194E01000D9
:1040000027E0002862D0501B002D00D0E1E0002EF8
:1040100000D181E0441E012800D142E1FF2800D1F7
:1040200019E12000DAE0002800DC9CE0002A69D0D9
:10403000FF2D00D178E08022D20413431B2800DC3E
:104040007DE001362AE0FF2D00D16DE08022D20410
:10405000134301221B2807DC2021091A1A008B4078
:10406000C240591E8B411A43B61A730100D477E03F
:10407000B601B7093800FCF7FBF8053887408542E0
:1040800000DD82E020223B00401B0130121A3E007E
:104090009340C6405A1E934100251E43730704D027
:1040A0000F233340042B00D00436730137D5681C2E
:1040B000FE2D52D08E4BC0B233409B015F0AC0052B
:1040C0003843E407204380BCB846F0BDFE206A1C9C
:1040D000104274D1002D00D0AAE0002E00D1DAE009
:1040E0000020002BEBD08022F71AD204174200D117
:1040F000ECE09B1B134200D1F2E07D4A0C00134020
:104100000130DAE7002B09D0421E012800D196E0E9
:10411000FF2809D0100091E70C001E000500F308ED
:104120009C46FF2D00D091E06346002B15D08027E0
:104130006346FF031F437F02FF207F0ABFE7202162
:10414000091A1A008B40C240591E8B411343F618BE
:10415000730105D50135FF2D54D1FF200027AEE7AF
:1041600073079DD1DBE7002813D0501B002D50D1E1
:10417000002ED2D0411E012840D0FF286CD008006C
:104180001B286EDD15005E1C88E7594E2D1A3E4037
:1041900084E7FE216A1C114241D1002D6CD1002E12
:1041A00000D190E00020002B00D188E7F318DF0851
:1041B0007F027F0A5B0100D481E701207FE7F71AC5
:1041C0007A0132D4002F00D054E7002400200027C9
:1041D00075E7FF2A3FD08024E404264301241B28EE
:1041E00008DC35001F34241AA640C540741EA641C1
:1041F0002C0034431E1B15000C0036E7F618023560
:10420000730120D501233B4A3340760816401E43F4
:1042100044E7FF2A20D08021C9040E43B0E7FF2ADB
:104220009BD0F6181500760838E70C009F1B21E795
:10423000002E3AD1002B4ED0C4460C0077E7F6187A
:1042400002257301DED4F3089C46012563465F0214
:104250007F0AE8B233E70C00C44665E70125F61A89
:1042600003E731002025C140281A8640701E864190
:104270000E431500F6186BE7002EEDD0002B00D191
:1042800055E78023DB039C4500D250E7984500D3D7
:104290004DE7C4464BE7002B97D00C004746002063
:1042A0000DE70C009E1B0135DFE6002B00D13EE739
:1042B0008023DB039C4500D239E7984500D336E7DD
:1042C0000C00C44633E747460020F8E6002F0BD029
:1042D000BF017F0AF3E680270024FF20FF03EEE6FC
:1042E0009B010C005F0AEAE600240027E7E6C046CF
:1042F000FFFFFFFBFFFFFF7DF0B546464F46D6466A
:104300004502C0B5C30F470098460E1C6D0A3F0E0C
:1043100057D0FF2F21D08023ED00DB041D43002365
:1043200099469A467F3F74027300640A1B0EF60F8B
:10433000002B20D0FF2B4CD080220020E400D204A0
:1043400014437F3B4246FF1A4B4672400F2B00D965
:10435000ACE06F499B00CB589F46002D5BD10823F2
:104360009946063B74029A467300FF27640A1B0EA7
:10437000F60F002BDED1002C30D1012342464946F6
:10438000724019430E2904D86248890041588F466B
:104390004246FF200024C0052043D2071043E0BC62
:1043A000BA46B146A846F0BD5346022BF0D0032BC7
:1043B00000D1A3E042462C00012B35D1002000247F
:1043C000E9E7002D1BD104239946033B00279A46B9
:1043D000A9E7002C0CD10223FF3FCFE72000FBF719
:1043E00047FF431F9C4076235B421B1A0020A9E72E
:1043F00003234A461A4391460320FC33A2E72800D0
:10440000FBF736FF7627431F9D4000237F429946E6
:104410009A463F1A87E70C239946093BFF279A469D
:1044200081E703286CD0320038007F30002825DD7A
:10443000630704D00F232340042B00D0043423014E
:1044400003D53800344B80301C40FE28A1DCA40189
:10445000640AC0B29FE780240022FF20E4039AE7A9
:104460008023DB031D4201D01C424BD08024E40397
:104470002C4364024246FF20640A8CE701231B1A86
:104480001B2B9BDC21009E37D940BC400B00611EDA
:104490008C412343590704D00F211940042900D02F
:1044A0000433590126D50120002474E76D01600111
:1044B000854213D21B230024013F012629006400FA
:1044C0006D00002901DBA84201D82D1A3443013BBD
:1044D000002BF3D16B1E9D412C43A5E71A23012429
:1044E0002D1AEAE7981E4342584140423200002408
:1044F000C0B250E79B0100205C0A4CE746462C0006
:104500008023DB031C4364023200FF20640A42E77D
:10451000E05C0008205D0008FFFFFFF770B5420077
:104520004E024C0045026D0A120EC30F760A240E8D
:10453000C90FFF2A10D0FF2C0CD00120A2420AD1B3
:10454000B54208D18B420FD0002A04D12800431E67
:10455000984100E0012070BD0120FF2CFBD13543C4
:10456000F9D14B401800F6E70020F4E730B54200DF
:1045700044024D02C30F4800640A120E6D0A000E79
:10458000C90FFF2A17D0FF280AD0002A1BD1002804
:104590000AD1002D24D0002C2ED14800013830BD86
:1045A000002D26D1002A01D1002CF6D08B4206D155
:1045B00058000138F3E7002C1BD1FF2813D001204D
:1045C0005B421843EBE70028F9D08B42F7D18242D7
:1045D000F5DCEDDBAC42F2D80020AC42DFD2E7E7FD
:1045E000002CDCD0EBE7002D03D18B42E7D100207B
:1045F000D5E702204042D2E78B42EBD0DFE7C0464E
:1046000030B5420044024D02C30F4800640A120E46
:104610006D0A000EC90FFF2A18D0FF280DD0002AFE
:104620001CD100280DD1002D27D0002C0BD08B429F
:104630001BD001205B4218430FE0002D0CD1002A53
:104640001ED1002C1CD14800013806E0002C03D1FB
:10465000FF28EED1002D16D0022030BD0028E8D072
:104660008B42E6D18242E4DC04DBAC42E1D800209C
:10467000AC42F2D258000138EFE7002CEDD0D8E779
:104680008B42D6D1F6E700208B42E6D0D1E7C04678
:10469000F0B54F464646D6464502C0B546000F1C0B
:1046A0006D0A360EC40F002E00D1C3E0FF2E77D066
:1046B0008023ED00DB041D43002399469A467F3E8C
:1046C0007B025B0A98467B001B0EFF0F002B77D006
:1046D000FF2B00D194E042468021D200C90411434F
:1046E000884600217F3BF6184B46721C0A2B73DC70
:1046F0004B467C40022B00DCA7E048460123834068
:10470000A620C000034267D190208000034200D061
:10471000ECE0B938FF38184200D0DAE0414609042D
:10472000090C43460F00280C2D041B0C2D0C6F4365
:1047300041435D4358436D183B0C5B19994203D9C3
:10474000802149028C4660443F0419043F0CC9197A
:104750008D016F1EBD411B0C890E1B180D439B0163
:104760001D431B0100D4C6E0012369081D400D4311
:1047700010007F30002800DC94E06B0704D00F238A
:104780002B40042B00D004352B0103D580321000C0
:104790005E4B1D40FE2855DCAB015B0AC0B226E033
:1047A000002D00D078E008239946063B9A467B020C
:1047B0005B0A98467B00FF261B0EFF0F002B87D15C
:1047C0004346002B56D14A4601331A4391464B4685
:1047D0000121721C0A2B8BDD5346022B32D0032B96
:1047E00000D17CE05346012BC2D100200023C0053C
:1047F0001843E4072043E0BCBA46B146A846F0BDE2
:1048000033004246FF33002A3FD00322494611437A
:10481000721C8946FF320A2973DD0F295DD180237E
:10482000DB031D425BD042461A4258D13C00FF20B8
:104830001343DCE7002D11D104239946033B0026E6
:104840009A463DE7FF200023D1E7013B012B00D929
:1048500064E70229F6D045468A46C3E72800FBF7FD
:1048600007FD7626431F9D400023764299469A46CF
:10487000361A25E74046FBF7FBFC4246431F9A40A9
:10488000361A90460021763E2EE749460232114301
:1048900089461E00022127E70C239946093BFF2683
:1048A0009A460DE701231B1A1B2B9EDC9E32290022
:1048B0009540D9406A1E95410D436B0704D00F23E4
:1048C0002B40042B00D004356B0116D501200023AA
:1048D0008DE73C0045468A467EE73C0045468023FE
:1048E000DB032B435B02FF205B0A80E7802300246D
:1048F000FF20DB037BE732003AE7AB0100205B0AD5
:1049000075E71E0003217C40F7E6C046FFFFFFF776
:10491000F0B546464F46D64643025B0AC0B59C46B4
:104920001F00DE004B025A0A904645004A002D0E39
:10493000C40F120EC90F9B09FF2A26D00120414047
:10494000A81A8C4210D0002800DC8AE1002A48D145
:10495000002B00D1AEE0421E012800D13FE1FF282C
:1049600000D1ADE0100041E0002800DC86E1002A23
:1049700000D182E0FF2D00D1A2E08022D2041343B7
:104980001B2800DC83E0013654E02800FF38824613
:10499000002B69D1012041408C4200D1D8E0504623
:1049A000002800D19AE00C00002D00D07DE0FF200F
:1049B000002E00D17CE0471E012800D12CE10C0024
:1049C000FF2800D109E101211B2F07DC2020C01B9B
:1049D00031008640F940701E8641314315005E1A51
:1049E00010E0FF2D6CD08022D204134301221B283B
:1049F00007DC2021091A1A008B40C240591E8B4146
:104A00001A43B61A730166D5B601B7093800FBF729
:104A10002FFC05388740854200DD7AE020223B00EC
:104A2000401B0130121A3E009340C6405A1E93416B
:104A300000251E43730704D00F233340042B00D0FE
:104A40000436730137D5681CFE2D2ED0914BC0B2B1
:104A500033409B015F0AC0053843E4072043E0BCB4
:104A6000BA46B146A846F0BD8C4260D0002835D089
:104A7000002D9CD00C00C44622E0002B1AD0421E10
:104A8000012800D19DE0FF281AD0100078E72021EE
:104A9000091A1A008B40C240591E8B411343F61865
:104AA000730118D50135FF2D6AD1FF200027D2E709
:104AB0000C001E000500F3089C46FF2D00D087E087
:104AC0006346002BF1D080276346FF031F437F021C
:104AD000FF207F0ABFE77307AED1ECE7FE206A1C18
:104AE00010421AD1002D63D1002E00D198E0002091
:104AF000002BB0D08022F71AD204174200D1A8E0D0
:104B000001249B1B0C401342A3D0624A0130134086
:104B10009FE7604E2D1A3E408CE7F71A7A0143D486
:104B2000002F00D072E700240020002793E7002820
:104B300011D0002D51D1FF20002EBAD0411E0128E6
:104B40003FD0FF2849D01B294CDD15005E1C71E7C2
:104B5000514600291BD1FE216A1C11421ED1002D95
:104B60004BD1002E72D00020002B00D173E7F31838
:104B7000DF087F027F0A5B0100D46CE701206AE74F
:104B80000123454A3340760816401E4352E7002D64
:104B9000D1D08AE7FE216A1C0A42E2D0FF2A84D0E3
:104BA000F6181500760845E701249F1B0C402DE7F9
:104BB000002E3CD1002B45D180270024FF20FF038D
:104BC00049E7F61802257301DAD4F3089C4601255B
:104BD00063465F027F0AE8B23DE7C44670E70125FD
:104BE000F61A0FE730002025C840691A8E40711E62
:104BF0008E4106431500F61852E7002EEDD0002B2B
:104C000000D160E78023DB039C4500D25BE7984539
:104C100000D358E7C44656E70C0001259E1BF1E679
:104C2000002B80D00124474600200C4013E7002BC6
:104C300000D148E78023DB039C4500D243E7984539
:104C400000D340E70124C4460C403CE7474600201F
:104C500001E7002F02D0BF017F0AFCE600240027F5
:104C6000F9E6002800D139E7571B3800002D00D1A4
:104C70009EE68020C0040C000643A4E6002889D0EC
:104C8000511B002D01D1080056E78020C0040643C7
:104C900059E7C046FFFFFFFBFFFFFF7D43024A02CB
:104CA000400049005B0A520A090E000EFF2806D098
:104CB0000020FF2902D1531E9A4110007047FE3890
:104CC000002BFBD1F4E7C04641024200C30F490A62
:104CD0000020120E7E2A03DD9D2A02DD094A981863
:104CE0007047802000040143952A07DC9620821A31
:104CF000D1404842002BF3D10800F1E7963A9140A9
:104D0000F7E7C046FFFFFF7F70B5041E0ED0FBF72C
:104D1000AFFA03009E20C01A96280CDC082B2DD079
:104D2000083B9C406402640AC0B201E000200024F9
:104D3000C005204370BD992814DC5A1F94402200FE
:104D400010490A40650709D00F252C40042C05D0D6
:104D50000432540102D59F200A40C01A9201540A1D
:104D6000C0B2E5E71A0021001B3291400A00511E33
:104D70008A410521C91ACC401443E0E76402962019
:104D8000640AD5E7FFFFFFFBF0B557464E46DE4607
:104D90004546E0B589B0009201930B031B0B9A4680
:104DA000CA0F4B00040091465B0D00D1BCE1D84A0C
:104DB000934200D14AE15146420FC9000A43802183
:104DC00009041143C2009046D24A8A469C18002327
:104DD00000250393009E019F3B031B0B9B46FA0F8C
:104DE0007B0030005B0D049200D16FE1C84A934212
:104DF00000D153E15946720FC9000A4380210904CA
:104E00001143C44A8B46944600216344F0001B19A9
:104E10005C1C0A2D00DD26E14E46049A5640F2B293
:104E20000092022D00DCA8E10122AA40A62715006D
:104E3000FF003A403D4200D013E19027BF003D42C1
:104E400000D016E288222A4200D0EFE141464246D5
:104E50000904090C0D00170C020C0004000C45435A
:104E6000AC46050016007D43A8460D007E43039224
:104E700004963200039E75436646360CB14645449F
:104E80004D44A84505D9160080225202904646445A
:104E900004962E0C059666463604360CB4462D0450
:104EA000654406955D462D0CA9465D460E002D0411
:104EB0002D0C6E43B4462E007E43B3464E467143DE
:104EC000594488466146090C414477438B4503D9D0
:104ED00080225202904647440E0CB0463E004644A3
:104EE000079666463704059E3F0CB4460904C91967
:104EF0008C44664605965646360CB44656463704EC
:104F00003F0C3E004643B04666464643B2464646E0
:104F10006046360CB346039A50437A4352445A448F
:104F2000924503D980267602B2465044160CB2460A
:104F300082444046120490460004000C3A004E465B
:104F4000804460466A4377434543704384467819FA
:104F5000170C3F18BD4203D9802040028146CC4443
:104F6000059D0498A946079E484488428941B14658
:104F700012043D04120CAA184A44494255184044F0
:104F8000A9464045AD41C8466D42AB46B24292414A
:104F900089458941D044C344494252420A43AB4502
:104FA000AD41D04589416D4249420D4359463F0CC0
:104FB000D219521962445202C90D069D11438A4604
:104FC000410229434D1EA941C00D084359464902DB
:104FD00008438046D20100D473E101224308024015
:104FE00013435246D2071343984653465B089A46EA
:104FF000009B9946484BE318002B00DCE5E0424655
:1050000052070AD00F2241460A40042A05D0043133
:10501000414592418846524292445246D20106D5B9
:1050200052463E4B1A4080239246DB00E3183C4A2E
:10503000934200DD9DE04246D108524652070A43A2
:1050400051465B054C02240B5B0D19E052460243AE
:10505000904600D0B3E01C0002239246082503933B
:10506000B8E6009B9946039B022B00D181E0032BFD
:1050700000D1F5E0039B012BBCD1002300240022CA
:1050800010004A461B052343D2071343190009B0F9
:10509000F0BCBB46B246A946A046F0BD5B46009EAA
:1050A0001E431B4BE318002E00D181E003224E4625
:1050B0001543049A5640F2B200928022120194469F
:1050C00064440A2D00DDB7E00321ADE65B46009A9B
:1050D000134365D05B46002B00D1E2E05846FBF756
:1050E000C7F8020003000B3A1D27009EBA1A1900E8
:1050F0005846D6400839884032000243009893460B
:105100008840084AE31A94460021634480E6C0467A
:10511000FF07000001FCFFFFFF030000FFFFFFFE91
:10512000FE0700000DFCFFFF53460343984630D0B6
:105130005346002B00D1A2E05046FBF799F80B2311
:105140005B429C460200844466461D239B1B26004E
:1051500011005046DE4008398840330003439A4628
:1051600023008B4098460023694C0025A41A039322
:1051700030E600240022674B82E7013D012D00D973
:1051800064E6009B99460229F3D0DA4680460391F3
:1051900070E700239A46013304250024039319E69F
:1051A000002201331D4393462300002001212FE6F6
:1051B00002221543002200209346022128E61C000B
:1051C000032380460C25039304E60121C91A3829DC
:1051D00000DD52E71F2978DD1F225242D31A5246C2
:1051E000DA401300202907D04B4A414694465246E4
:1051F0006444A240114388464246511E8A411A43E4
:10520000072319000024114013420BD00F23134031
:10521000042B7BD0131D9342A4411A006442610702
:105220006402240BD20800230A4329E7049BDA46D0
:1052300099468046039116E70F2D0DD180245346E1
:10524000240323420CD05B46234209D11C43049B18
:10525000020099462F4B13E7049BDA469946804695
:105260008024534624031C4324034246294B240B29
:1052700006E70023802499462403264B00E7FAF72B
:10528000F7FF15239C4684440200634620321C2B02
:1052900000DC59E7002398462300083883409A46EB
:1052A00061E7FAF7E5FF02000300153220331C2AFC
:1052B00000DC19E702000099083A914000208B4673
:1052C0001FE7009A1C00914694E6144B52469C46F8
:1052D00043466444A240CB401A434346A340581E71
:1052E000834154461A43CC40530709D00F2313403F
:1052F000042B05D0131D934292415242A4181A0068
:1053000023028CD5012300240022B9E6002486E77D
:105310000DFCFFFFFF0700003E0400001E0400001C
:1053200070B5002816D0C317C5185D40C40F2800FB
:10533000FAF79EFF104B1B1A5B055B0D0A2814DC65
:1053400002002E00153296400B22121AD5402D0372
:105350002D0B03E000240023002500261B052B4312
:10536000E40723433000190070BD0B3885402D033E
:1053700000262D0BF2E7C0461E04000070B5420265
:105380004300C40FFE201B0E591C550A08420CD0C6
:10539000E02189008C466D07120B63441B05134303
:1053A000E40723432800190070BD002B14D1002D01
:1053B0001BD02800FAF75CFF0A281CDC0B232A000C
:1053C0001B1ADA40030015339D400E4B12031B1AC3
:1053D0005B05120B5B0DE1E7002D09D0130B80225A
:1053E00012031A436D07084BD8E700230022D5E7C4
:1053F0000022054BD2E703002A000B3B9A40002510
:10540000E3E7C04689030000FF070000F0B54B004A
:105410000F035B0D3C4C450F83B07F0A5E1C2F438E
:1054200000900191CA0FC50026420BD037495C1885
:10543000FE2C13DDFF200023C0051843D2071043C4
:1054400003B0F0BD3D43002B01D10020F4E7002D57
:10545000F0D08023DB03FF203B43EDE7002C14DD7D
:10546000009BFF009B01581E8341690F3B430B4388
:10547000590746D00F21194004292AD00433590175
:1054800027D501340023E0B2D6E72100173124DB11
:1054900080211E2009043943001B1F2820DD02261D
:1054A0007642341B0E00E6403400202804D0184811
:1054B0008446634499400D432B00591E8B4123437E
:1054C00059071AD00F2100241940042901D00024C3
:1054D00004339B015B0AE0B2AEE700200023ABE798
:1054E0000C4C1C192B00A540C340A140681E8541EF
:1054F00029430B4300245907BCD19B0100205B0AC0
:105500009AE7DB08E0B297E7FE07000080FCFFFFA8
:10551000A2FCFFFF82FCFFFF10B5FEF7A5FA00001A
:10552000F8B5C046F8BC08BC9E467047F8B5C04602
:08553000F8BC08BC9E46704760
:105538002D2D2D2053544D3332204D5055363035B6
:105548003020496E697469616C697A6564202D2D13
:105558002D0053656E736F72204F6E6C696E652EE9
:10556800204F70656E2053657269616C20506C6FB6
:105578007474657221004552524F523A2053656E39
:10558800736F72206E6F7420666F756E6420284387
:105598006865636B2050756C6C2D7570205265734F
:1055A8006973746F7273290050697463683A002CC8
:1055B80000526F6C6C3A000D0A006E616E00696EE5
:1055C80066006F766600040208000100020004000D
:1055D800060008000A000C001000200040008000AF
:1055E80000010000010000000200000004000000AB
:1055F800080000001000000020000000400000002B
:10560800800000000001000000020000000400000B
:10561800000800000010000000200000004000000A
:1056280000800000000000000000000000000000F2
:10563800000000000100000002000000030000005C
:1056480004000000000000000044004012010000B7
:105658000B00000000380140120100001400000097
:105668000038014012040000160000000038014014
:105678001205000017000000004400401209000055
:105688001800000000440040120100003300000030
:105698000044004012000000FFFFFFFF0000000070
:1056A800000000000100000000440040120100005A
:1056B8000C00000000380140120100000E0000003C
:1056C80000380140120C00000F00000000380140B3
:1056D800120400001300000000380140120400000A
:1056E80016000000003801401204000019000000F4
:1056F80000440040120100002E0000000044004059
:1057080012090000FFFFFFFF00000000000000007A
:1057180001000000003801401204000003000000EE
:105728000044004012010000050000000044004051
:10573800120100000800000000380140120E0000AD
:105748000A00000000380140120100000D000000AE
:1057580000440040120400000E0000000044004015
:10576800120900000F000000004400401201000070
:10577800120000000038014012000000170000006D
:105788000038014012000000FFFFFFFF000000008A
:105798000000000000000000003801401204000072
:1057A8000200000000440040120100000400000054
:1057B80000440040120100000800000000440040BE
:1057C8001201000009000000003801401201000029
:1057D8000E00000000440040120100001600000006
:1057E80000380140120000002E000000003801407F
:1057F80012000000FFFFFFFF000000000000000093
:1058080000000000002C014012850000000100008B
:10581800004401401282000001000000002C0140F9
:105828001205010001010000004801401282000039
:1058380002000000002C0140128501000201000056
:10584800004401401282100003000000002C0140B7
:105858001282100003010000002C01401205020012
:1058680004000000002C0140120211000401000095
:10587800002000401284000004020000004801409B
:105888001285100005000000002C01401285000060
:1058980005010000002C01401282110006000000E2
:1058A800000400401281000006010000004401408D
:1058B8001285000007000000002C01401282100031
:1058C8000701000000040040120101000702000067
:1058D8000020004012840000070300000048014037
:1058E8001285000008000000002C01401282000010
:1058F80008010000002C01401209110008020000F4
:10590800002C0140128A1100080300000004004026
:10591800128B01000804000000040040120C020071
:105928000805000000200040128D0000090000005A
:10593800002C0140120201000A000000002C014066
:10594800128201000B000000002C0140120202002C
:105958000E000000002C0140128A00000F00000019
:10596800002C01401282000010000000002C0140B1
:105978001202110010010000000400401281010011
:1059880011000000002C0140120511001101000057
:10599800002C014012821100110200000004004096
:1059A80012010200110300000020004012800000D4
:1059B80013000000002C0140120101001301000037
:1059C800000400401203010014000000000400401D
:1059D80012810000150000000004004012010100BF
:1059E80015010000000400401283010016000000A9
:1059F800002C0140120B010016010000002C014090
:105A0800128101001602000000040040128C000000
:105A18001603000000040040120D010016040000E7
:105A280000040040128301001605000000440140F4
:105A38001282100017000000002C01401201020021
:105A48001701000000040040128B0000170200003C
:105A58000004004012030200170300000044014044
:105A6800128A00001704000000480140128210004A
:105A78001800000000040040128300001801000014
:105A88000044014012820000190000000004004098
:105A980012030100190100000048014012820000B1
:105AA8001D000000002C0140128210001E000000A2
:105AB800002C0140120211001F000000002C0140C0
:105AC800128211002600000000040040128100002C
